:100000000C9462000C948A000C948A000C9457059E
:100010000C9457050C9457050C948A000C948A0094
:100020000C948A000C948A000C948A000C948A0028
:100030000C948A000C948A000C948A000C948A0018
:100040000C94B5040C948A000C9425050C94FF04C0
:100050000C948A000C948A000C948A000C948A00F8
:100060000C948A000C948A000000000024002700F1
:100070002A0000000008000201000003040700003D
:1000800000000000000000000000230026002900FE
:1000900000000000250028002B00040404040404D0
:1000A0000404020202020202030303030303010227
:1000B00004081020408001020408102001020408F6
:1000C0001020080711241FBECFEFD8E0DEBFCDBF40
:1000D00023E0A8EFB1E001C01D92A833B207E1F719
:1000E00011E0A0E0B1E0ECE9FFE102C005900D9263
:1000F000A83FB107D9F710E0C2E6D0E004C02197CD
:10010000FE010E94D40DC136D107C9F70E94F9083B
:100110000C94CC0F0C94000020910003309101034B
:100120008217930734F0C901019797FF02C090E04E
:1001300080E0880F991F880F991F2091020330914A
:100140000303820F931F08952091FA023091FB025E
:100150008217930734F0C901019797FF02C090E01E
:1001600080E023E0880F991F2A95E1F72091FC0297
:100170003091FD02820F931F0895833081F028F49F
:10018000813099F08230A9F008958730A9F0883045
:10019000C9F08430B1F4809180008F7D03C08091DC
:1001A00080008F7780938000089584B58F7784BD19
:1001B000089584B58F7DFBCF8091B0008F778093B9
:1001C000B00008958091B0008F7DF9CFCF93DF9379
:1001D000282F30E0F901EE58FF4F8491F901E255E4
:1001E000FF4FD491F901E656FF4FC491CC23A1F003
:1001F00081110E94BD00EC2FF0E0EE0FFF1FEA57C7
:10020000FF4FA591B491EC91ED2381E090E009F4CA
:1002100080E0DF91CF91089580E090E0FACF1F93C6
:10022000CF93DF93282F30E0F901EE58FF4F8491F0
:10023000F901E255FF4FD491F901E656FF4FC49101
:10024000CC23A9F0162F81110E94BD00EC2FF0E005
:10025000EE0FFF1FE057FF4FA591B4918FB7F894B1
:10026000EC91111108C0D095DE23DC938FBFDF9194
:10027000CF911F910895DE2BF8CF8E3008F08E506D
:100280008770806480937C0080917A008064809382
:100290007A0080917A0086FDFCCF80917800909161
:1002A000790008953FB7F8948091410290914202FD
:1002B000A0914302B091440226B5A89B05C02F3FF0
:1002C00019F00196A11DB11D3FBFBA2FA92F982F7C
:1002D0008827BC01CD01620F711D811D911D42E077
:1002E000660F771F881F991F4A95D1F70895AF921F
:1002F000BF92CF92DF92EF92FF920F931F93CF9313
:10030000DF936C017B018B01040F151FEB015E0174
:10031000AE18BF08C017D10759F06991D601ED9109
:10032000FC910190F081E02DC6010995892B79F7A8
:10033000C501DF91CF911F910F91FF90EF90DF905A
:10034000CF90BF90AF900895FC01538D448D252F21
:1003500030E0842F90E0821B930B541710F0CF965F
:10036000089501970895FC01918D828D981761F091
:10037000A28DAE0FBF2FB11D5D968C91928D9F5FA8
:100380009F73928F90E008958FEF9FEF0895FC0187
:10039000918D828D981731F0828DE80FF11D858D3A
:1003A00090E008958FEF9FEF0895FC01918D228DCD
:1003B000892F90E0805C9F4F821B91098F73992752
:1003C000089585E492E00E94D50121E0892B09F48B
:1003D00020E0822F089580E090E0892B29F00E9490
:1003E000E10181110C9400000895FC01A48DA80F77
:1003F000B92FB11DA35ABF4F2C91848D90E0019667
:100400008F739927848FA689B7892C93A089B18986
:100410008C91837080648C93938D848D981306C027
:100420000288F389E02D80818F7D80830895EF928B
:10043000FF920F931F93CF93DF93EC0181E0888F9E
:100440009B8D8C8D98131AC0E889F989808185FF6E
:1004500015C09FB7F894EE89FF896083E889F98910
:1004600080818370806480839FBF81E090E0DF9112
:10047000CF911F910F91FF90EF900895F62E0B8D65
:1004800010E00F5F1F4F0F731127E02E8C8D8E1120
:100490000CC00FB607FCFACFE889F989808185FF87
:1004A000F5CFCE010E94F501F1CFEB8DEC0FFD2FC2
:1004B000F11DE35AFF4FF0829FB7F8940B8FEA8942
:1004C000FB8980818062CFCFCF93DF93EC01888D51
:1004D0008823B9F0AA89BB89E889F9898C9185FDBF
:1004E00003C0808186FD0DC00FB607FCF7CF8C914D
:1004F00085FFF2CF808185FFEDCFCE010E94F5010F
:10050000E9CFDF91CF9108952091E2023091E3028B
:100510002817390771F490913802809139029817A1
:1005200041F0E0913802F0E0E850FE4F808190E029
:1005300008958FEF9FEF08950895EF92FF920F9324
:100540001F93CF93DF93DC015C96ED90FC905D9759
:10055000E114F10479F481E090E013969C938E937A
:10056000129790E080E0DF91CF911F910F91FF9063
:10057000EF9008955196ED91FC91529750968C9181
:100580005097982F90950FB75E962C915E97122FEB
:10059000127021FD6095F8942081112319F1282B08
:1005A0002083E7012197F1F728E0462F50E03081C2
:1005B00060FF1AC0382B3083E7012197F1F7BA01A9
:1005C00075956795215089F7112381F080818923E2
:1005D00080830FBF5C968D919C910197F1F781E02C
:1005E00090E0C1CF2923DCCF3923E5CF9081892B3F
:1005F000EFCF2091E2023091E3022817390771F41E
:10060000809139022091380290E0805C9F4F821BDC
:10061000910960E470E00E948A0D089590E080E006
:1006200008952091E2023091E30228173907B9F4C6
:100630009091380280913902981789F0E091380240
:10064000F0E0E850FE4F80812091380230E02F5FCB
:100650003F4F2F7333272093380290E008958FEF98
:100660009FEF089590E080E00895FC010190002044
:10067000E9F73197AF01481B590BBC0185E492E0C3
:100680000C9477018F929F92AF92BF920F931F931A
:10069000CF93DF93CDB7DEB7A1970FB6F894DEBF47
:1006A0000FBECDBF19A2423008F44AE08E010F5DA3
:1006B0001F4F842E912CB12CA12CA50194010E94D6
:1006C0009E0DE62FB901CA01EA30F4F4E05DD801CD
:1006D000EE938D01232B242B252B79F790E080E0DE
:1006E000109719F0CD010E943503A1960FB6F8942A
:1006F000DEBF0FBECDBFDF91CF911F910F91BF9095
:10070000AF909F908F900895E95CE1CFCF92DF92F8
:10071000EF92FF92CF93DF936B017C016DE285E452
:1007200092E00E941702EC0166277727CB016C1933
:100730007D098E099F094AE00E9442038C0F9D1F8C
:10074000DF91CF91FF90EF90DF90CF900895CF93FE
:10075000DF930E943503EC0184EC91E00E943503A5
:100760008C0F9D1FDF91CF910895CF93DF93FC01F4
:10077000448155816081718185E492E00E94770116
:10078000EC0184EC91E00E9435038C0F9D1FDF91FA
:10079000CF9108950F931F93CF93DF93EC0188813E
:1007A0009981009759F02A813B812617370730F04D
:1007B00081E0DF91CF911F910F9108958B016F5FC1
:1007C0007F4F0E94FF0E009759F0998388831B8307
:1007D0000A832C813D81232B59F7FC011082E8CF3D
:1007E00080E0E7CFEF92FF920F931F93CF93DF93B9
:1007F000FB0101900020E9F73197E61BF70BE1F0D0
:100800007B018C01DC011496CD91DC91CE0FDF1FB2
:10081000BE010E94CA03882381F0F8012081318142
:1008200084819581B701820F931F0E94C50FD80163
:100830001596DC93CE93149781E0DF91CF911F91B1
:100840000F91FF90EF900895CF92DF92EF92FF9279
:100850000F931F93CF93DF93CDB7DEB728970FB6D3
:10086000F894DEBF0FBECDBF7C01CB014AE09E01F4
:100870002F5F3F4F6901B9010E94E80BF60101901B
:100880000020E9F73197EC19FD09D9F0D70114964A
:100890000D911C910E0F1F1FB801C7010E94CA03C2
:1008A000882381F0F7012081318184819581B6010F
:1008B000820F931F0E94C50FD70115961C930E93AC
:1008C000149781E028960FB6F894DEBF0FBECDBF17
:1008D000DF91CF911F910F91FF90EF90DF90CF901C
:1008E0000895FC0180819181009711F00C94760E9F
:1008F0000895EF92FF920F931F93CF93DF93EC0134
:100900007B01198218821B821A821D821C82FB01C4
:1009100001900020E9F731978F01061B170BB801F2
:100920000E94CA0328813981811113C02115310524
:1009300019F0C9010E94760E198218821D821C824C
:100940001B821A82DF91CF911F910F91FF90EF9040
:1009500008951D830C83B701C901DF91CF911F91C9
:100960000F91FF90EF900C94C50F1F920F920FB64E
:100970000F9211242F933F938F939F93AF93BF9325
:1009800080913D0290913E02A0913F02B0914002C1
:1009900030913C0223E0230F2D3758F50196A11D1D
:1009A000B11D20933C0280933D0290933E02A093A0
:1009B0003F02B09340028091410290914202A09187
:1009C0004302B09144020196A11DB11D80934102E2
:1009D00090934202A0934302B0934402BF91AF911F
:1009E0009F918F913F912F910F900FBE0F901F906D
:1009F000189526E8230F0296A11DB11DD2CF1F9294
:100A00000F920FB60F9211242F933F934F935F9342
:100A10006F937F938F939F93AF93BF93EF93FF93C6
:100A200085E492E00E94F501FF91EF91BF91AF91B3
:100A30009F918F917F916F915F914F913F912F91F6
:100A40000F900FBE0F901F9018951F920F920FB628
:100A50000F9211242F938F939F93EF93FF93E09125
:100A60005502F09156028081E0915B02F0915C02A8
:100A700082FD1BC0908180915E028F5F8F732091F9
:100A80005F02821741F0E0915E02F0E0EB5BFD4F08
:100A9000958F80935E02FF91EF919F918F912F919F
:100AA0000F900FBE0F901F9018958081F4CF1F926A
:100AB0000F920FB60F9211242F933F934F935F9392
:100AC0006F937F938F939F93AF93BF93EF93FF9316
:100AD000E091E202F091E302309749F0A685B785F4
:100AE0008585968D91FF14C09C918923A1F4FF9177
:100AF000EF91BF91AF919F918F917F916F915F9196
:100B00004F913F912F910F900FBE0F901F9018950E
:100B10009C91892361F7A389B4899C9185898095EB
:100B200089238C93868997890197F1F7608D718D60
:100B3000A685B785558538E020E0CB010197F1F710
:100B4000822F90E095958795282F4C91452309F0A9
:100B50002068315091F7868D81FD20958091390272
:100B600090E001968F73992730913802381799F0E9
:100B7000A0913902B0E0A850BE4F2C938093390267
:100B8000828D938D0197F1F7A389B4898C91958912
:100B9000892B8C93ACCF868D8160868FF1CFCF93DC
:100BA000DF9390E0FC01E255FF4F249186569F4F62
:100BB000FC0184918823C9F090E0880F991FFC0103
:100BC000E859FF4FA591B491FC01E057FF4FC59143
:100BD000D49161110DC09FB7F8948C912095822318
:100BE0008C938881282328839FBFDF91CF9108951C
:100BF000623051F49FB7F8943C91822F8095832303
:100C00008C93E8812E2BEFCF8FB7F894EC912E2B9D
:100C10002C938FBFEACF6F927F928F929F92AF9269
:100C2000BF92CF92DF92EF92FF920F931F93CF93D9
:100C3000DF93EC016B014A835B837A018FEF9FEFB7
:100C4000411520E1520730F4CA01F3E0880F991FE3
:100C5000FA95E1F70E94DA0D3C018C0170E9872ECC
:100C600099249394EEE0AE2EB12C81E0E81AF108BD
:100C7000F7FC0EC0F8011282138295828482B18241
:100C8000A08262E08EE00E94CF05085F1F4FEDCF8B
:100C90006C827D828A819B818115F0E49F0788F5B3
:100CA000880F991F0E94DA0D99838883760110E0DE
:100CB00000E08A819B810817190734F5F7018191BB
:100CC00091917F019801220F331FE881F981E20F92
:100CD000F31F91838083F70132978081918198017E
:100CE00053E0220F331F5A95E1F7EC81FD81E20FAB
:100CF000F31F8083918362E00E94CF050F5F1F4F37
:100D0000D8CF8FEF9FEFCECFDF91CF911F910F9173
:100D1000FF90EF90DF90CF90BF90AF909F908F901B
:100D20007F906F900895AF92BF92CF92DF92EF9233
:100D3000FF920F931F93CF93DF93EC015B014A83E4
:100D40005B837A018FEF9FEF411520E2520728F471
:100D5000CA01880F991F880F991F0E94DA0D6C0134
:100D60008C0181E0E81AF108F7FC0CC0F80112824E
:100D700013821182108262E080E00E94CF050C5F36
:100D80001F4FEFCFCC82DD828A819B818115F0E4F9
:100D90009F0780F5880F991F0E94DA0D9983888339
:100DA000750110E000E08A819B81081719072CF576
:100DB000F701819191917F019801220F331FE88102
:100DC000F981E20FF31F91838083F70132978081CD
:100DD00091819801220F331F220F331FEC81FD8177
:100DE000E20FF31F8083918362E00E94CF050F5FC3
:100DF0001F4FD9CF8FEF9FEFCFCFDF91CF911F91B3
:100E00000F91FF90EF90DF90CF90BF90AF9008953B
:100E10002F923F924F925F926F927F928F929F920A
:100E2000AF92BF92CF92DF92EF92FF920F931F93F8
:100E3000CF93DF93CDB7DEB7AD970FB6F894DEBF93
:100E40000FBECDBF109248021092470298EE492E75
:100E500093E0592E612C712C4092490250924A0223
:100E600060924B0270924C0284EA91E090934602A9
:100E70008093450285EC90E090935202809351025A
:100E800084EC90E0909354028093530280EC90E0C5
:100E9000909356028093550281EC90E09093580213
:100EA0008093570282EC90E090935A02809359020B
:100EB00086EC90E090935C0280935B0210925E025D
:100EC00010925F02109260021092610288E891E035
:100ED00090932F0380932E0389E090E090932D034D
:100EE00080932C032CE731E03093330320933203BB
:100EF00026E030E030933103209330032AE631E0DE
:100F00003093270320932603909325038093240393
:100F10002AE531E030932B0320932A0328E030E0C8
:100F2000309329032093280348E451E050931F0392
:100F300040931E0390931D0380931C0380E491E073
:100F4000909323038093220384E090E09093210305
:100F50008093200348E351E0509317034093160316
:100F6000909315038093140386E291E090931B0302
:100F700080931A0330931903209318038AE091E0B9
:100F800090930F0380930E038EE090E090930D03F7
:100F900080930C038CE093E09093130380931203EF
:100FA000109211031092100384E091E090930703D4
:100FB0008093060303E010E01093050300930403FD
:100FC00080E091E090930B0380930A0322E0E22EED
:100FD000F12CF0920903E092080343E050E064E052
:100FE00071E08EEF92E00E949306409108035091C9
:100FF000090360910A0370910B0388EF92E00E944D
:101000000B068090040390900503A0900603B09017
:101010000703209008033090090380910A03909100
:101020000B039DA78CA7F092E502E092E4021093D7
:10103000E7020093E6023DE0C32ED12CD092E902F4
:10104000C092E80250E040E070E060E08AEE92E09A
:101050000E94930650E040E070E060E080EF92E094
:101060000E940B06F092E502E092E4021093E70280
:101070000093E602D092E902C092E802A401B50111
:10108000CE0186960E94930686E0FE01B696AAEEF1
:10109000B2E001900D928A95E1F7A1016CA57DA5C2
:1010A000CE0180960E940B0686E0FE01B096A0EF6E
:1010B000B2E001900D928A95E1F7E090E602F0909F
:1010C000E7020091E4021091E5021C821B824D822E
:1010D0005E826F82788686EB91E09A838983188E90
:1010E0001F8A1A8E198E1C8E1B8E1E8E1D8E6F8D62
:1010F0006E7F6D7F6F8F6695617081E068278E2DA2
:101100000E940F0161E08E2D0E94CF05C701992733
:10111000FC01E255FF4FE491E98BFC01E656FF4FDD
:10112000E491F0E0EE0FFF1FE057FF4F859194919F
:101130009B8B8A8B60E0802F0E94CF058F8D81FD75
:1011400004C061E0802F0E940F010D871127F80174
:10115000E255FF4FE491EE87F801E656FF4FE49128
:10116000F0E0EE0FFF1FEA57FF4F85919491988BA7
:101170008F878E010F5F1F4F1093F7020093F602C7
:1011800061E08091E8020E94CF0561E08091E80271
:101190000E940F0186EB91E09A8389838091E2029D
:1011A0009091E3020817190759F4EC89FD899081A1
:1011B0008E898095892380831092E3021092E20247
:1011C000AD960FB6F894DEBF0FBECDBFDF91CF91C5
:1011D0001F910F91FF90EF90DF90CF90BF90AF9055
:1011E0009F908F907F906F905F904F903F902F9047
:1011F0000895CF93DF93CDB7DEB72C970FB6F89451
:10120000DEBF0FBECDBF789484B5826084BD84B547
:10121000816084BD85B5826085BD85B5816085BDF1
:1012200080916E00816080936E00109281008091A9
:101230008100826080938100809181008160809331
:101240008100809180008160809380008091B10056
:1012500084608093B1008091B00081608093B00081
:1012600080917A00846080937A0080917A00826015
:1012700080937A0080917A00816080937A008091D7
:101280007A00806880937A001092C100E091550244
:10129000F091560282E08083E0915102F091520277
:1012A0001082E0915302F09154028FEC80831092EF
:1012B0005D02E0915902F0915A0286E08083E0914C
:1012C0005702F0915802808180618083E09157023B
:1012D000F0915802808188608083E0915702F091FC
:1012E0005802808180688083E0915702F091580213
:1012F00080818F7D8083E091F602F091F702138E5A
:10130000128E118E108E178A168A8DE991E0958FB4
:10131000848F8485863108F03DC02DEB30E0378B1B
:10132000268B2BE931E0318F208F2CE231E0338F97
:10133000228F90916800883008F483C021E08E30BD
:1013400008F420E081E001C0880F2A95EAF7892B94
:101350008093680094852DE630E0983050F02BE6BD
:1013600030E09E3030F02CE630E0963110F030E086
:1013700020E0348B238B292F30E0983008F063C0B5
:1013800081E001C0880F9A95EAF7858B848D958D51
:101390000197F1F7828D938D892B41F14091E20203
:1013A0005091E302E417F50709F14115510569F081
:1013B000DA0153962D913C91D9019C91DA01559611
:1013C0008C9180958923D9018C93868D8E7F868F11
:1013D0001092390210923802F093E302E093E20295
:1013E000A389B4898C919589892B8C9330E0E32E65
:1013F00030E0F32E83ED91E00E94A70387EC91E0AB
:101400000E94A70310E000E0209100033091010347
:10141000021713074CF5E091FE02F091FF02C8019C
:10142000880F991FE80FF91F60817181072E000C4A
:10143000880B990B97FF14C00E9486030F5F1F4F04
:10144000E3CF84E084CF9E3040F42850310981E01E
:1014500001C0880F2A95EAF798CF2E503109F7CFAF
:101460004AE00E944203EACFB901032E000C880B28
:10147000990B37FFA4C00E94860384EC91E00E9480
:10148000350310E000E080910003909101030817FC
:1014900019070CF098C0C8010E948C006C01FC0177
:1014A00080810E94E600D60112962C911297139625
:1014B0002C9321E0892B09F420E0F601228365EDCD
:1014C00071E0CE0107960E947904B801CE0107961B
:1014D0000E94240462ED71E0CE0107960E94F2039F
:1014E000C8010E948C00DC016D917C91CE010796B1
:1014F0000E94240462ED71E0CE0107960E94F2037F
:10150000C8010E948C00FC0180810E94E60061E01D
:1015100070E0892B11F470E060E0CE0107960E9424
:10152000240463ED71E0CE0107960E94F203C80126
:101530000E948C00DC0112966C9170E0CE0107963F
:101540000E942404CE0107960E94B503C8010E94A0
:101550008C00FC0122818381281751F16AED71E032
:10156000CE0101960E947904B801CE0101960E9435
:10157000240463ED71E0CE0101960E94F203C801DC
:101580000E948C00DC018C910E94E60061E070E01A
:10159000892B11F470E060E0CE0101960E942404D2
:1015A000CE0101960E94B503CE0101960E947104FE
:1015B000CE0107960E9471040F5F1F4F64CF4AE06F
:1015C0000E9442035ACF10E000E08091FA0290910D
:1015D000FB02081719070CF0B0C0C8010E94A40054
:1015E0006C01FC0180810E943D019C01D60117968F
:1015F0009C938E93169791E014964D915C912417CD
:1016000035070CF490E0F60182818383928362EEC9
:1016100071E0CE0107960E947904B801CE010796C9
:101620000E94240462ED71E0CE0107960E94F2034D
:10163000C8010E94A400DC016D917C91CE01079647
:101640000E94240462ED71E0CE0107960E94F2032D
:10165000C8010E94A400FC0166817781072E000C5E
:10166000880B990B0E941F0C2DEC3CEC4CEC52E4C7
:101670000E94E20C0E94540DCE0107960E942404A1
:101680006AEE71E0CE0107960E94F203C8010E9443
:10169000A400DC018C910E943D01BC01CE010796A3
:1016A0000E94240463ED71E0CE0107960E94F203CC
:1016B000C8010E94A400FC0166817781CE010796D3
:1016C0000E942404CE0107960E94B503C8010E941F
:1016D000A400DC0112962C91129713968C91281776
:1016E00029F16AED71E0CE0101960E947904B801FA
:1016F000CE0101960E94240463ED71E0CE010196B3
:101700000E94F203C8010E94A400FC0180810E9493
:101710003D01BC01CE0101960E942404CE01019638
:101720000E94B503CE0101960E947104CE01079676
:101730000E9471040F5F1F4F48CF8CEE91E00E9412
:10174000A70383ED91E00E94A7030E9452012B01A1
:101750003C0180ED882E87E0982EA12CB12C0E94B0
:1017600052016419750986099709683E734081051D
:101770009105A8F3F1E08F1A9108A108B10828EEAD
:10178000420E23E0521E611C711C81149104A104BD
:10179000B10429F760913A0270913B026F5F7F4F6D
:1017A00070933B0260933A02609570956170772761
:1017B0008091E8020E940F01E114F10409F41ACEAD
:1017C0000E94E101882309F411CE0E9400000ECE90
:1017D000BB274A3031F4992322F4BDE290958195DC
:1017E0009F4F0C94F40BBB27FB015527AA27880FAA
:1017F000991FAA1FA41710F0A41B83955051B9F785
:10180000A05DAA3308F0A95DA193009779F7B11103
:10181000B1931192CB010C940D0CDC01FC01672FEC
:1018200071917723E1F7329704C07C916D937083B7
:101830006291AE17BF07C8F30895E89409C097FBFB
:101840003EF490958095709561957F4F8F4F9F4F97
:101850009923A9F0F92F96E9BB279395F6958795DB
:1018600077956795B795F111F8CFFAF4BB0F11F49E
:1018700060FF1BC06F5F7F4F8F4F9F4F16C0882345
:1018800011F096E911C0772321F09EE8872F762F7B
:1018900005C0662371F096E8862F70E060E02AF0BC
:1018A0009A95660F771F881FDAF7880F96958795A8
:1018B00097F9089597F99F6780E870E060E00895D0
:1018C0009FEF80EC089500240A9416161706180658
:1018D0000906089500240A94121613061406050634
:1018E0000895092E0394000C11F4882352F0BB0FC5
:1018F00040F4BF2B11F460FF04C06F5F7F4F8F4F28
:101900009F4F089557FD9058440F551F59F05F3F62
:1019100071F04795880F97FB991F61F09F3F79F011
:1019200087950895121613061406551FF2CF469593
:10193000F1DF08C0161617061806991FF1CF869515
:101940007105610508940895E894BB2766277727F9
:10195000CB0197F908952F923F924F925F926F9229
:101960007F928F929F92AF92BF92CF92DF92EF922F
:10197000FF920F931F93CF93DF93CDB7DEB7CA1BB0
:10198000DB0B0FB6F894DEBF0FBECDBF09942A88DB
:10199000398848885F846E847D848C849B84AA8483
:1019A000B984C884DF80EE80FD800C811B81AA8110
:1019B000B981CE0FD11D0FB6F894DEBF0FBECDBFDB
:1019C000ED0108950E94F60C0C94710C0E946A0CB3
:1019D00058F00E94630C40F029F45F3F29F00C940A
:1019E0005A0C51110C94A50C0C94600C0E94820CA2
:1019F00068F39923B1F3552391F3951B550BBB273E
:101A0000AA2762177307840738F09F5F5F4F220F82
:101A1000331F441FAA1FA9F335D00E2E3AF0E0E879
:101A200032D091505040E695001CCAF72BD0FE2FC3
:101A300029D0660F771F881FBB1F26173707480757
:101A4000AB07B0E809F0BB0B802DBF01FF2793580F
:101A50005F4F3AF09E3F510578F00C945A0C0C946D
:101A6000A50C5F3FE4F3983ED4F386957795679590
:101A7000B795F7959F5FC9F7880F911D9695879544
:101A800097F90895E1E0660F771F881FBB1F621763
:101A900073078407BA0720F0621B730B840BBA0B21
:101AA000EE1F88F7E09508950E945B0D6894B111D0
:101AB0000C94A50C08950E948A0C88F09F5798F00A
:101AC000B92F9927B751B0F0E1F0660F771F881F43
:101AD000991F1AF0BA95C9F714C0B13091F00E945D
:101AE000A40CB1E008950C94A40C672F782F8827DC
:101AF000B85F39F0B93FCCF3869577956795B39584
:101B0000D9F73EF490958095709561957F4F8F4FF2
:101B10009F4F089597FB072E16F4009407D077FD8A
:101B200009D00E94C00D07FC05D03EF49095819528
:101B30009F4F0895709561957F4F0895A1E21A2EE9
:101B4000AA1BBB1BFD010DC0AA1FBB1FEE1FFF1F61
:101B5000A217B307E407F50720F0A21BB30BE40BB1
:101B6000F50B661F771F881F991F1A9469F76095F8
:101B70007095809590959B01AC01BD01CF010895B2
:101B8000AA1BBB1B51E107C0AA1FBB1FA617B707A3
:101B900010F0A61BB70B881F991F5A95A9F78095BF
:101BA0009095BC01CD010895EE0FFF1F0590F491B3
:101BB000E02D09940F931F93CF93DF93823091050B
:101BC00010F482E090E0E0913603F091370330E0CA
:101BD00020E0B0E0A0E0309799F42115310509F438
:101BE0004AC0281B390B24303105D8F58A819B81E6
:101BF0006115710589F1FB0193838283FE0111C098
:101C0000408151810281138148175907E0F048173C
:101C1000590799F4109761F012960C931297139646
:101C20001C933296CF01DF91CF911F910F910895B0
:101C30000093360310933703F4CF2115310551F08B
:101C40004217530738F0A901DB019A01BD01DF01FA
:101C5000F801C1CFEF01F9CF90933703809336039A
:101C6000CDCFFE01E20FF31F8193919322503109F2
:101C700039832883D7CF2091340330913503232B28
:101C800041F420919C0130919D01309335032093C4
:101C9000340320919A0130919B012115310541F4C3
:101CA0002DB73EB740919E0150919F01241B350BEB
:101CB000E0913403F0913503E217F307A0F42E1BF3
:101CC0003F0B2817390778F0AC014E5F5F4F2417A0
:101CD000350748F04E0F5F1F509335034093340390
:101CE000819391939FCFF0E0E0E09CCFCF93DF937F
:101CF0000097E9F0FC01329713821282A09136031B
:101D0000B0913703ED0130E020E01097A1F420817D
:101D10003181820F931F20913403309135032817AE
:101D2000390709F061C0F0933503E0933403DF9184
:101D3000CF910895EA01CE17DF07E8F54A815B816C
:101D40009E0141155105B1F7E901FB83EA834991F1
:101D50005991C40FD51FEC17FD0761F48081918163
:101D60000296840F951FE90199838883828193816C
:101D70009B838A83F0E0E0E012968D919C9113970B
:101D80000097B9F52D913C911197CD010296820FE4
:101D9000931F20913403309135032817390739F602
:101DA000309751F51092370310923603B0933503F4
:101DB000A0933403BCCFD383C28340815181840F6D
:101DC000951FC817D90761F44E5F5F4F88819981CD
:101DD000480F591F518340838A819B81938382835B
:101DE0002115310509F0B0CFF0933703E0933603A6
:101DF0009ECFFD01DC01C0CF13821282D7CFB0E0AD
:101E0000A0E0E5E0FFE00C94AD0C8C01009751F4EC
:101E1000CB010E94DA0D8C01C801CDB7DEB7E0E13D
:101E20000C94C90CFC01E60FF71F9C0122503109EC
:101E3000E217F30708F49DC0D901CD91DC91119709
:101E4000C617D70798F0C530D10530F3CE010497F7
:101E50008617970708F3C61BD70B2297C193D19318
:101E60006D937C93CF010E94760ED6CF5B01AC1AA6
:101E7000BD0A4C018C0E9D1EA0913603B091370314
:101E8000512C412CF12CE12C109731F58091340329
:101E9000909135038815990509F05CC046165706E0
:101EA00008F058C080919A0190919B01009741F4ED
:101EB0008DB79EB740919E0150919F01841B950B59
:101EC000E817F90708F055C0F0933503E0933403A1
:101ED000F90171836083A0CF8D919C911197129627
:101EE0006C90129713967C901397A815B90559F525
:101EF0006C0142E0C40ED11CCA14DB0420F1AC0119
:101F00004A195B09DA011296159780F06282738292
:101F100051834083D9016D937C93E114F10471F0F6
:101F2000D7011396FC93EE93129776CF22968C0FDF
:101F30009D1FF90191838083F301EFCFF093370365
:101F4000E093360369CF4816590608F42C017D0149
:101F5000D3019ACFCB010E94DA0D7C01009749F0A2
:101F6000AE01B8010E94BC0FC8010E94760E870125
:101F700053CF10E000E050CFFB01DC0102C0019024
:101F80000D9241505040D8F70895FB01DC010190BB
:0C1F90000D920020E1F70895F894FFCFB7
:101F9C000E000F00040006001000040006000700ED
:101FAC00080009000A0015001400130012000F00AD
:101FBC000E0010000A000E000F00100011000400AB
:101FCC000600080009000A0007000F000E001000B0
:101FDC000E000F001000110004000600070008009E
:101FEC0009000A000F000E0010000E000F00100078
:101FFC001100120013001400150004000500060067
:10200C000700080009000A000B000C000E000F006E
:10201C001000110012001300040005000600070058
:10202C00080009000A000B000C00000038038000B7
:10203C000000000017027701A4016402D501B3016E
:10204C00C701000000009D02770132039C02F902D7
:10205C00110384020D0A004672616D652053746190
:10206C0072743A200050696E3A0053776974636851
:10207C002000416E616C6F673A002F004672616DF3
:08208C00652053746F70000021
:00000001FF
